{
    "contractName": "GrapeGenesisRewardPool",
    "abi": [
        {
            "inputs": [
                {
                    "internalType": "address",
                    "name": "_grape",
                    "type": "address"
                },
                {
                    "internalType": "address",
                    "name": "_mim",
                    "type": "address"
                },
                {
                    "internalType": "uint256",
                    "name": "_poolStartTime",
                    "type": "uint256"
                }
            ],
            "stateMutability": "nonpayable",
            "type": "constructor"
        },
        {
            "anonymous": false,
            "inputs": [
                {
                    "indexed": true,
                    "internalType": "address",
                    "name": "user",
                    "type": "address"
                },
                {
                    "indexed": true,
                    "internalType": "uint256",
                    "name": "pid",
                    "type": "uint256"
                },
                {
                    "indexed": false,
                    "internalType": "uint256",
                    "name": "amount",
                    "type": "uint256"
                }
            ],
            "name": "Deposit",
            "type": "event"
        },
        {
            "anonymous": false,
            "inputs": [
                {
                    "indexed": true,
                    "internalType": "address",
                    "name": "user",
                    "type": "address"
                },
                {
                    "indexed": true,
                    "internalType": "uint256",
                    "name": "pid",
                    "type": "uint256"
                },
                {
                    "indexed": false,
                    "internalType": "uint256",
                    "name": "amount",
                    "type": "uint256"
                }
            ],
            "name": "EmergencyWithdraw",
            "type": "event"
        },
        {
            "anonymous": false,
            "inputs": [
                {
                    "indexed": true,
                    "internalType": "address",
                    "name": "user",
                    "type": "address"
                },
                {
                    "indexed": false,
                    "internalType": "uint256",
                    "name": "amount",
                    "type": "uint256"
                }
            ],
            "name": "RewardPaid",
            "type": "event"
        },
        {
            "anonymous": false,
            "inputs": [
                {
                    "indexed": true,
                    "internalType": "address",
                    "name": "user",
                    "type": "address"
                },
                {
                    "indexed": true,
                    "internalType": "uint256",
                    "name": "pid",
                    "type": "uint256"
                },
                {
                    "indexed": false,
                    "internalType": "uint256",
                    "name": "amount",
                    "type": "uint256"
                }
            ],
            "name": "Withdraw",
            "type": "event"
        },
        {
            "inputs": [],
            "name": "TOTAL_REWARDS",
            "outputs": [
                {
                    "internalType": "uint256",
                    "name": "",
                    "type": "uint256"
                }
            ],
            "stateMutability": "view",
            "type": "function"
        },
        {
            "inputs": [
                {
                    "internalType": "uint256",
                    "name": "_allocPoint",
                    "type": "uint256"
                },
                {
                    "internalType": "contract IERC20",
                    "name": "_token",
                    "type": "address"
                },
                {
                    "internalType": "bool",
                    "name": "_withUpdate",
                    "type": "bool"
                },
                {
                    "internalType": "uint256",
                    "name": "_lastRewardTime",
                    "type": "uint256"
                }
            ],
            "name": "add",
            "outputs": [],
            "stateMutability": "nonpayable",
            "type": "function"
        },
        {
            "inputs": [
                {
                    "internalType": "uint256",
                    "name": "_pid",
                    "type": "uint256"
                },
                {
                    "internalType": "uint256",
                    "name": "_amount",
                    "type": "uint256"
                }
            ],
            "name": "deposit",
            "outputs": [],
            "stateMutability": "nonpayable",
            "type": "function"
        },
        {
            "inputs": [
                {
                    "internalType": "uint256",
                    "name": "_pid",
                    "type": "uint256"
                }
            ],
            "name": "emergencyWithdraw",
            "outputs": [],
            "stateMutability": "nonpayable",
            "type": "function"
        },
        {
            "inputs": [
                {
                    "internalType": "uint256",
                    "name": "_fromTime",
                    "type": "uint256"
                },
                {
                    "internalType": "uint256",
                    "name": "_toTime",
                    "type": "uint256"
                }
            ],
            "name": "getGeneratedReward",
            "outputs": [
                {
                    "internalType": "uint256",
                    "name": "",
                    "type": "uint256"
                }
            ],
            "stateMutability": "view",
            "type": "function"
        },
        {
            "inputs": [
                {
                    "internalType": "contract IERC20",
                    "name": "_token",
                    "type": "address"
                },
                {
                    "internalType": "uint256",
                    "name": "amount",
                    "type": "uint256"
                },
                {
                    "internalType": "address",
                    "name": "to",
                    "type": "address"
                }
            ],
            "name": "governanceRecoverUnsupported",
            "outputs": [],
            "stateMutability": "nonpayable",
            "type": "function"
        },
        {
            "inputs": [],
            "name": "grape",
            "outputs": [
                {
                    "internalType": "contract IERC20",
                    "name": "",
                    "type": "address"
                }
            ],
            "stateMutability": "view",
            "type": "function"
        },
        {
            "inputs": [],
            "name": "grapePerSecond",
            "outputs": [
                {
                    "internalType": "uint256",
                    "name": "",
                    "type": "uint256"
                }
            ],
            "stateMutability": "view",
            "type": "function"
        },
        {
            "inputs": [],
            "name": "massUpdatePools",
            "outputs": [],
            "stateMutability": "nonpayable",
            "type": "function"
        },
        {
            "inputs": [],
            "name": "mim",
            "outputs": [
                {
                    "internalType": "address",
                    "name": "",
                    "type": "address"
                }
            ],
            "stateMutability": "view",
            "type": "function"
        },
        {
            "inputs": [],
            "name": "operator",
            "outputs": [
                {
                    "internalType": "address",
                    "name": "",
                    "type": "address"
                }
            ],
            "stateMutability": "view",
            "type": "function"
        },
        {
            "inputs": [
                {
                    "internalType": "uint256",
                    "name": "_pid",
                    "type": "uint256"
                },
                {
                    "internalType": "address",
                    "name": "_user",
                    "type": "address"
                }
            ],
            "name": "pendingGRAPE",
            "outputs": [
                {
                    "internalType": "uint256",
                    "name": "",
                    "type": "uint256"
                }
            ],
            "stateMutability": "view",
            "type": "function"
        },
        {
            "inputs": [],
            "name": "poolEndTime",
            "outputs": [
                {
                    "internalType": "uint256",
                    "name": "",
                    "type": "uint256"
                }
            ],
            "stateMutability": "view",
            "type": "function"
        },
        {
            "inputs": [
                {
                    "internalType": "uint256",
                    "name": "",
                    "type": "uint256"
                }
            ],
            "name": "poolInfo",
            "outputs": [
                {
                    "internalType": "contract IERC20",
                    "name": "token",
                    "type": "address"
                },
                {
                    "internalType": "uint256",
                    "name": "allocPoint",
                    "type": "uint256"
                },
                {
                    "internalType": "uint256",
                    "name": "lastRewardTime",
                    "type": "uint256"
                },
                {
                    "internalType": "uint256",
                    "name": "accGrapePerShare",
                    "type": "uint256"
                },
                {
                    "internalType": "bool",
                    "name": "isStarted",
                    "type": "bool"
                }
            ],
            "stateMutability": "view",
            "type": "function"
        },
        {
            "inputs": [],
            "name": "poolStartTime",
            "outputs": [
                {
                    "internalType": "uint256",
                    "name": "",
                    "type": "uint256"
                }
            ],
            "stateMutability": "view",
            "type": "function"
        },
        {
            "inputs": [],
            "name": "runningTime",
            "outputs": [
                {
                    "internalType": "uint256",
                    "name": "",
                    "type": "uint256"
                }
            ],
            "stateMutability": "view",
            "type": "function"
        },
        {
            "inputs": [
                {
                    "internalType": "uint256",
                    "name": "_pid",
                    "type": "uint256"
                },
                {
                    "internalType": "uint256",
                    "name": "_allocPoint",
                    "type": "uint256"
                }
            ],
            "name": "set",
            "outputs": [],
            "stateMutability": "nonpayable",
            "type": "function"
        },
        {
            "inputs": [
                {
                    "internalType": "address",
                    "name": "_operator",
                    "type": "address"
                }
            ],
            "name": "setOperator",
            "outputs": [],
            "stateMutability": "nonpayable",
            "type": "function"
        },
        {
            "inputs": [],
            "name": "totalAllocPoint",
            "outputs": [
                {
                    "internalType": "uint256",
                    "name": "",
                    "type": "uint256"
                }
            ],
            "stateMutability": "view",
            "type": "function"
        },
        {
            "inputs": [
                {
                    "internalType": "uint256",
                    "name": "_pid",
                    "type": "uint256"
                }
            ],
            "name": "updatePool",
            "outputs": [],
            "stateMutability": "nonpayable",
            "type": "function"
        },
        {
            "inputs": [
                {
                    "internalType": "uint256",
                    "name": "",
                    "type": "uint256"
                },
                {
                    "internalType": "address",
                    "name": "",
                    "type": "address"
                }
            ],
            "name": "userInfo",
            "outputs": [
                {
                    "internalType": "uint256",
                    "name": "amount",
                    "type": "uint256"
                },
                {
                    "internalType": "uint256",
                    "name": "rewardDebt",
                    "type": "uint256"
                }
            ],
            "stateMutability": "view",
            "type": "function"
        },
        {
            "inputs": [
                {
                    "internalType": "uint256",
                    "name": "_pid",
                    "type": "uint256"
                },
                {
                    "internalType": "uint256",
                    "name": "_amount",
                    "type": "uint256"
                }
            ],
            "name": "withdraw",
            "outputs": [],
            "stateMutability": "nonpayable",
            "type": "function"
        }
    ],
    "bytecode": "608060405260006005556709407cd53468e000600855610e1060095534801561002757600080fd5b506040516118eb3803806118eb8339818101604052606081101561004a57600080fd5b5080516020820151604090920151909190428111610098576040805162461bcd60e51b815260206004808301919091526024820152636c61746560e01b604482015290519081900360640190fd5b6001600160a01b038316156100c357600180546001600160a01b0319166001600160a01b0385161790555b6001600160a01b038216156100ee57600280546001600160a01b0319166001600160a01b0384161790555b6006819055600954016007555050600080546001600160a01b031916331790556117ce8061011d6000396000f3fe608060405234801561001057600080fd5b50600436106101425760003560e01c8063570ca735116100b857806393f1a40b1161007c57806393f1a40b14610310578063943f013d1461035557806396805e541461035d5780639f67679e14610397578063b3ab15fb1461039f578063e2bbb158146103c557610142565b8063570ca735146102c45780635f96dc11146102cc578063630b5ba1146102d45780636e271dd5146102dc578063851f5a4c146102e457610142565b8063441a3e701161010a578063441a3e701461020557806346933ec5146102285780634c9277891461023057806351eb05a6146102545780635312ea8e1461027157806354575af41461028e57610142565b806309cf6091146101475780631526fe271461016157806317caf6f1146101b55780631ab06ee5146101bd578063231f0c6a146101e2575b600080fd5b61014f6103e8565b60408051918252519081900360200190f35b61017e6004803603602081101561017757600080fd5b50356103f5565b604080516001600160a01b039096168652602086019490945284840192909252606084015215156080830152519081900360a00190f35b61014f610440565b6101e0600480360360408110156101d357600080fd5b5080359060200135610446565b005b61014f600480360360408110156101f857600080fd5b50803590602001356104f4565b6101e06004803603604081101561021b57600080fd5b50803590602001356105b9565b61014f610776565b61023861077c565b604080516001600160a01b039092168252519081900360200190f35b6101e06004803603602081101561026a57600080fd5b503561078b565b6101e06004803603602081101561028757600080fd5b50356108e9565b6101e0600480360360608110156102a457600080fd5b506001600160a01b03813581169160208101359160409091013516610985565b610238610acc565b61014f610adb565b6101e0610ae1565b61014f610b04565b61014f600480360360408110156102fa57600080fd5b50803590602001356001600160a01b0316610b0a565b61033c6004803603604081101561032657600080fd5b50803590602001356001600160a01b0316610c6b565b6040805192835260208301919091528051918290030190f35b61014f610c8f565b6101e06004803603608081101561037357600080fd5b508035906001600160a01b0360208201351690604081013515159060600135610c95565b610238610e92565b6101e0600480360360208110156103b557600080fd5b50356001600160a01b0316610ea1565b6101e0600480360360408110156103db57600080fd5b5080359060200135610f0c565b68821ab0d4414980000081565b6003818154811061040257fe5b6000918252602090912060059091020180546001820154600283015460038401546004909401546001600160a01b0390931694509092909160ff1685565b60055481565b6000546001600160a01b0316331461048f5760405162461bcd60e51b815260040180806020018281038252602c8152602001806116fc602c913960400191505060405180910390fd5b610497610ae1565b6000600383815481106104a657fe5b60009182526020909120600590910201600481015490915060ff16156104ed576104e9826104e383600101546005546110b890919063ffffffff16565b90611115565b6005555b6001015550565b6000818310610505575060006105b3565b600754821061056d57600754831061051f575060006105b3565b60065483116105525761054b6008546105456006546007546110b890919063ffffffff16565b90611176565b90506105b3565b61054b600854610545856007546110b890919063ffffffff16565b600654821161057e575060006105b3565b60065483116105a25761054b600854610545600654856110b890919063ffffffff16565b60085461054b9061054584866110b8565b92915050565b60003390506000600384815481106105cd57fe5b600091825260208083208784526004825260408085206001600160a01b03881686529092529220805460059092029092019250841115610649576040805162461bcd60e51b81526020600482015260126024820152711dda5d1a191c985dce881b9bdd0819dbdbd960721b604482015290519081900360640190fd5b6106528561078b565b600061068f8260010154610689670de0b6b3a76400006106838760030154876000015461117690919063ffffffff16565b906111cf565b906110b8565b905080156106e1576106a18482611236565b6040805182815290516001600160a01b038616917fe2403640ba68fed3a2f88b7557551d1993f84b99bb10ff833f0cf8db0c5e0486919081900360200190a25b841561070b5781546106f390866110b8565b8255825461070b906001600160a01b031685876112ec565b6003830154825461072991670de0b6b3a76400009161068391611176565b600183015560408051868152905187916001600160a01b038716917ff279e6a1f5e320cca91135676d9cb6e44ca8a08c0b88342bcdb1144f6511b5689181900360200190a3505050505050565b60085481565b6001546001600160a01b031681565b60006003828154811061079a57fe5b90600052602060002090600502019050806002015442116107bb57506108e6565b8054604080516370a0823160e01b815230600482015290516000926001600160a01b0316916370a08231916024808301926020929190829003018186803b15801561080557600080fd5b505afa158015610819573d6000803e3d6000fd5b505050506040513d602081101561082f57600080fd5b50519050806108455750426002909101556108e6565b600482015460ff166108765760048201805460ff1916600190811790915582015460055461087291611115565b6005555b600554156108dd57600061088e8360020154426104f4565b905060006108af60055461068386600101548561117690919063ffffffff16565b90506108d56108ca8461068384670de0b6b3a7640000611176565b600386015490611115565b600385015550505b50426002909101555b50565b6000600382815481106108f857fe5b600091825260208083208584526004825260408085203380875293528420805485825560018201959095556005909302018054909450919291610948916001600160a01b039190911690836112ec565b604080518281529051859133917fbb757047c2b5f3974fe26b7c10f732e7bce710b0952a71082702781e62ae05959181900360200190a350505050565b6000546001600160a01b031633146109ce5760405162461bcd60e51b815260040180806020018281038252602c8152602001806116fc602c913960400191505060405180910390fd5b6007546276a70001421015610ab3576001546001600160a01b0384811691161415610a28576040805162461bcd60e51b8152602060048201526005602482015264677261706560d81b604482015290519081900360640190fd5b60035460005b81811015610ab057600060038281548110610a4557fe5b6000918252602090912060059091020180549091506001600160a01b0387811691161415610aa7576040805162461bcd60e51b815260206004820152600a6024820152693837b7b6173a37b5b2b760b11b604482015290519081900360640190fd5b50600101610a2e565b50505b610ac76001600160a01b03841682846112ec565b505050565b6000546001600160a01b031681565b60065481565b60035460005b81811015610b0057610af88161078b565b600101610ae7565b5050565b60075481565b60008060038481548110610b1a57fe5b60009182526020808320878452600480835260408086206001600160a01b038a811688529085528187206005969096029093016003810154815483516370a0823160e01b81523095810195909552925191985095969491909316926370a08231926024808201939291829003018186803b158015610b9757600080fd5b505afa158015610bab573d6000803e3d6000fd5b505050506040513d6020811015610bc157600080fd5b5051600285015490915042118015610bd857508015155b15610c35576000610bed8560020154426104f4565b90506000610c0e60055461068388600101548561117690919063ffffffff16565b9050610c30610c298461068384670de0b6b3a7640000611176565b8590611115565b935050505b610c608360010154610689670de0b6b3a764000061068386886000015461117690919063ffffffff16565b979650505050505050565b60046020908152600092835260408084209091529082529020805460019091015482565b60095481565b6000546001600160a01b03163314610cde5760405162461bcd60e51b815260040180806020018281038252602c8152602001806116fc602c913960400191505060405180910390fd5b610ce78361133e565b8115610cf557610cf5610ae1565b600654421015610d215780610d0d5750600654610d1c565b600654811015610d1c57506006545b610d35565b801580610d2d57504281105b15610d355750425b600060065482111580610d485750428211155b6040805160a0810182526001600160a01b03878116825260208201898152928201868152600060608401818152861580156080870190815260038054600181018255945295517fc2575a0e9e593c00f959f8c92f12db2869c3395a3b0502d05e2516446f71f85b600590940293840180546001600160a01b031916919096161790945594517fc2575a0e9e593c00f959f8c92f12db2869c3395a3b0502d05e2516446f71f85c82015590517fc2575a0e9e593c00f959f8c92f12db2869c3395a3b0502d05e2516446f71f85d82015592517fc2575a0e9e593c00f959f8c92f12db2869c3395a3b0502d05e2516446f71f85e84015590517fc2575a0e9e593c00f959f8c92f12db2869c3395a3b0502d05e2516446f71f85f909201805460ff191692151592909217909155909150610e8b57600554610e879086611115565b6005555b5050505050565b6002546001600160a01b031681565b6000546001600160a01b03163314610eea5760405162461bcd60e51b815260040180806020018281038252602c8152602001806116fc602c913960400191505060405180910390fd5b600080546001600160a01b0319166001600160a01b0392909216919091179055565b6000339050600060038481548110610f2057fe5b600091825260208083208784526004825260408085206001600160a01b0388168652909252922060059091029091019150610f5a8561078b565b805415610fe6576000610f928260010154610689670de0b6b3a76400006106838760030154876000015461117690919063ffffffff16565b90508015610fe457610fa48482611236565b6040805182815290516001600160a01b038616917fe2403640ba68fed3a2f88b7557551d1993f84b99bb10ff833f0cf8db0c5e0486919081900360200190a25b505b831561104e578154611003906001600160a01b03168430876113d8565b60025482546001600160a01b039081169116141561103f57611038611030612710610683876126ac611176565b825490611115565b815561104e565b805461104b9085611115565b81555b6003820154815461106c91670de0b6b3a76400009161068391611176565b600182015560408051858152905186916001600160a01b038616917f90890809c654f11d6e72a28fa60149770a0d11ec6c92319d6ceb2bb0a4ea1a159181900360200190a35050505050565b60008282111561110f576040805162461bcd60e51b815260206004820152601e60248201527f536166654d6174683a207375627472616374696f6e206f766572666c6f770000604482015290519081900360640190fd5b50900390565b60008282018381101561116f576040805162461bcd60e51b815260206004820152601b60248201527f536166654d6174683a206164646974696f6e206f766572666c6f770000000000604482015290519081900360640190fd5b9392505050565b600082611185575060006105b3565b8282028284828161119257fe5b041461116f5760405162461bcd60e51b815260040180806020018281038252602181526020018061174e6021913960400191505060405180910390fd5b6000808211611225576040805162461bcd60e51b815260206004820152601a60248201527f536166654d6174683a206469766973696f6e206279207a65726f000000000000604482015290519081900360640190fd5b81838161122e57fe5b049392505050565b600154604080516370a0823160e01b815230600482015290516000926001600160a01b0316916370a08231916024808301926020929190829003018186803b15801561128157600080fd5b505afa158015611295573d6000803e3d6000fd5b505050506040513d60208110156112ab57600080fd5b505190508015610ac757808211156112d9576001546112d4906001600160a01b031684836112ec565b610ac7565b600154610ac7906001600160a01b031684845b604080516001600160a01b038416602482015260448082018490528251808303909101815260649091019091526020810180516001600160e01b031663a9059cbb60e01b179052610ac7908490611438565b60035460005b81811015610ac757826001600160a01b03166003828154811061136357fe5b60009182526020909120600590910201546001600160a01b031614156113d0576040805162461bcd60e51b815260206004820181905260248201527f477261706547656e65736973506f6f6c3a206578697374696e6720706f6f6c3f604482015290519081900360640190fd5b600101611344565b604080516001600160a01b0380861660248301528416604482015260648082018490528251808303909101815260849091019091526020810180516001600160e01b03166323b872dd60e01b179052611432908590611438565b50505050565b606061148d826040518060400160405280602081526020017f5361666545524332303a206c6f772d6c6576656c2063616c6c206661696c6564815250856001600160a01b03166114e99092919063ffffffff16565b805190915015610ac7578080602001905160208110156114ac57600080fd5b5051610ac75760405162461bcd60e51b815260040180806020018281038252602a81526020018061176f602a913960400191505060405180910390fd5b60606114f88484600085611500565b949350505050565b6060824710156115415760405162461bcd60e51b81526004018080602001828103825260268152602001806117286026913960400191505060405180910390fd5b61154a85611651565b61159b576040805162461bcd60e51b815260206004820152601d60248201527f416464726573733a2063616c6c20746f206e6f6e2d636f6e7472616374000000604482015290519081900360640190fd5b60006060866001600160a01b031685876040518082805190602001908083835b602083106115da5780518252601f1990920191602091820191016115bb565b6001836020036101000a03801982511681845116808217855250505050505090500191505060006040518083038185875af1925050503d806000811461163c576040519150601f19603f3d011682016040523d82523d6000602084013e611641565b606091505b5091509150610c60828286611657565b3b151590565b6060831561166657508161116f565b8251156116765782518084602001fd5b8160405162461bcd60e51b81526004018080602001828103825283818151815260200191508051906020019080838360005b838110156116c05781810151838201526020016116a8565b50505050905090810190601f1680156116ed5780820380516001836020036101000a031916815260200191505b509250505060405180910390fdfe477261706547656e65736973506f6f6c3a2063616c6c6572206973206e6f7420746865206f70657261746f72416464726573733a20696e73756666696369656e742062616c616e636520666f722063616c6c536166654d6174683a206d756c7469706c69636174696f6e206f766572666c6f775361666545524332303a204552433230206f7065726174696f6e20646964206e6f742073756363656564a26469706673582212202d8012180e2f8404de2a21886360a93315579239c0f2d3fdd97bbe07df297be364736f6c634300060c0033",
    "sourcePath": "/home/surfacing8671/Documents/HamsterTomb/contracts/distribution/genesispool.sol",
    "compiler": {
        "name": "solc",
        "version": "0.6.12+commit.27d51765"
    },
    "functionHashes": {
        "TOTAL_REWARDS()": "09cf6091",
        "add(uint256,address,bool,uint256)": "96805e54",
        "deposit(uint256,uint256)": "e2bbb158",
        "emergencyWithdraw(uint256)": "5312ea8e",
        "getGeneratedReward(uint256,uint256)": "231f0c6a",
        "governanceRecoverUnsupported(address,uint256,address)": "54575af4",
        "grape()": "4c927789",
        "grapePerSecond()": "46933ec5",
        "massUpdatePools()": "630b5ba1",
        "mim()": "9f67679e",
        "operator()": "570ca735",
        "pendingGRAPE(uint256,address)": "851f5a4c",
        "poolEndTime()": "6e271dd5",
        "poolInfo(uint256)": "1526fe27",
        "poolStartTime()": "5f96dc11",
        "runningTime()": "943f013d",
        "set(uint256,uint256)": "1ab06ee5",
        "setOperator(address)": "b3ab15fb",
        "totalAllocPoint()": "17caf6f1",
        "updatePool(uint256)": "51eb05a6",
        "userInfo(uint256,address)": "93f1a40b",
        "withdraw(uint256,uint256)": "441a3e70"
    },
    "gasEstimates": {
        "creation": {
            "codeDepositCost": "1218800",
            "executionCost": "infinite",
            "totalCost": "infinite"
        },
        "external": {
            "TOTAL_REWARDS()": "222",
            "add(uint256,address,bool,uint256)": "infinite",
            "deposit(uint256,uint256)": "infinite",
            "emergencyWithdraw(uint256)": "infinite",
            "getGeneratedReward(uint256,uint256)": "infinite",
            "governanceRecoverUnsupported(address,uint256,address)": "infinite",
            "grape()": "1104",
            "grapePerSecond()": "1043",
            "massUpdatePools()": "infinite",
            "mim()": "1125",
            "operator()": "1060",
            "pendingGRAPE(uint256,address)": "infinite",
            "poolEndTime()": "1087",
            "poolInfo(uint256)": "5380",
            "poolStartTime()": "1043",
            "runningTime()": "1042",
            "set(uint256,uint256)": "infinite",
            "setOperator(address)": "infinite",
            "totalAllocPoint()": "1066",
            "updatePool(uint256)": "infinite",
            "userInfo(uint256,address)": "2072",
            "withdraw(uint256,uint256)": "infinite"
        },
        "internal": {
            "checkPoolDuplicate(contract IERC20)": "infinite",
            "safeGrapeTransfer(address,uint256)": "infinite"
        }
    }
}