{
    "contractName": "HamsterGenesisRewardPool",
    "abi": [
        {
            "inputs": [
                {
                    "internalType": "address",
                    "name": "_hamster",
                    "type": "address"
                },
                {
                    "internalType": "address[]",
                    "name": "comissionTokens_",
                    "type": "address[]"
                },
                {
                    "internalType": "uint256",
                    "name": "_comissionPercent",
                    "type": "uint256"
                },
                {
                    "internalType": "uint256",
                    "name": "_poolStartTime",
                    "type": "uint256"
                },
                {
                    "internalType": "uint256",
                    "name": "_totalRewards",
                    "type": "uint256"
                },
                {
                    "internalType": "uint256",
                    "name": "_runningTime",
                    "type": "uint256"
                }
            ],
            "stateMutability": "nonpayable",
            "type": "constructor"
        },
        {
            "anonymous": false,
            "inputs": [
                {
                    "indexed": true,
                    "internalType": "address",
                    "name": "user",
                    "type": "address"
                },
                {
                    "indexed": true,
                    "internalType": "uint256",
                    "name": "pid",
                    "type": "uint256"
                },
                {
                    "indexed": false,
                    "internalType": "uint256",
                    "name": "amount",
                    "type": "uint256"
                }
            ],
            "name": "Deposit",
            "type": "event"
        },
        {
            "anonymous": false,
            "inputs": [
                {
                    "indexed": true,
                    "internalType": "address",
                    "name": "user",
                    "type": "address"
                },
                {
                    "indexed": true,
                    "internalType": "uint256",
                    "name": "pid",
                    "type": "uint256"
                },
                {
                    "indexed": false,
                    "internalType": "uint256",
                    "name": "amount",
                    "type": "uint256"
                }
            ],
            "name": "EmergencyWithdraw",
            "type": "event"
        },
        {
            "anonymous": false,
            "inputs": [
                {
                    "indexed": true,
                    "internalType": "address",
                    "name": "user",
                    "type": "address"
                },
                {
                    "indexed": false,
                    "internalType": "uint256",
                    "name": "amount",
                    "type": "uint256"
                }
            ],
            "name": "RewardPaid",
            "type": "event"
        },
        {
            "anonymous": false,
            "inputs": [
                {
                    "indexed": true,
                    "internalType": "address",
                    "name": "user",
                    "type": "address"
                },
                {
                    "indexed": true,
                    "internalType": "uint256",
                    "name": "pid",
                    "type": "uint256"
                },
                {
                    "indexed": false,
                    "internalType": "uint256",
                    "name": "amount",
                    "type": "uint256"
                }
            ],
            "name": "Withdraw",
            "type": "event"
        },
        {
            "inputs": [
                {
                    "internalType": "uint256",
                    "name": "_allocPoint",
                    "type": "uint256"
                },
                {
                    "internalType": "contract IERC20",
                    "name": "_token",
                    "type": "address"
                },
                {
                    "internalType": "bool",
                    "name": "_withUpdate",
                    "type": "bool"
                },
                {
                    "internalType": "uint256",
                    "name": "_lastRewardTime",
                    "type": "uint256"
                },
                {
                    "internalType": "uint256",
                    "name": "_maxDeposit",
                    "type": "uint256"
                }
            ],
            "name": "add",
            "outputs": [],
            "stateMutability": "nonpayable",
            "type": "function"
        },
        {
            "inputs": [],
            "name": "comissionPercent",
            "outputs": [
                {
                    "internalType": "uint256",
                    "name": "",
                    "type": "uint256"
                }
            ],
            "stateMutability": "view",
            "type": "function"
        },
        {
            "inputs": [
                {
                    "internalType": "uint256",
                    "name": "index",
                    "type": "uint256"
                }
            ],
            "name": "comissionToken",
            "outputs": [
                {
                    "internalType": "address",
                    "name": "",
                    "type": "address"
                }
            ],
            "stateMutability": "view",
            "type": "function"
        },
        {
            "inputs": [],
            "name": "comissionTokensCount",
            "outputs": [
                {
                    "internalType": "uint256",
                    "name": "",
                    "type": "uint256"
                }
            ],
            "stateMutability": "view",
            "type": "function"
        },
        {
            "inputs": [
                {
                    "internalType": "uint256",
                    "name": "_pid",
                    "type": "uint256"
                },
                {
                    "internalType": "uint256",
                    "name": "_amount",
                    "type": "uint256"
                }
            ],
            "name": "deposit",
            "outputs": [],
            "stateMutability": "nonpayable",
            "type": "function"
        },
        {
            "inputs": [
                {
                    "internalType": "uint256",
                    "name": "_pid",
                    "type": "uint256"
                }
            ],
            "name": "emergencyWithdraw",
            "outputs": [],
            "stateMutability": "nonpayable",
            "type": "function"
        },
        {
            "inputs": [
                {
                    "internalType": "uint256",
                    "name": "_fromTime",
                    "type": "uint256"
                },
                {
                    "internalType": "uint256",
                    "name": "_toTime",
                    "type": "uint256"
                }
            ],
            "name": "getGeneratedReward",
            "outputs": [
                {
                    "internalType": "uint256",
                    "name": "",
                    "type": "uint256"
                }
            ],
            "stateMutability": "view",
            "type": "function"
        },
        {
            "inputs": [
                {
                    "internalType": "contract IERC20",
                    "name": "_token",
                    "type": "address"
                },
                {
                    "internalType": "uint256",
                    "name": "amount",
                    "type": "uint256"
                },
                {
                    "internalType": "address",
                    "name": "to",
                    "type": "address"
                }
            ],
            "name": "governanceRecoverUnsupported",
            "outputs": [],
            "stateMutability": "nonpayable",
            "type": "function"
        },
        {
            "inputs": [],
            "name": "hamster",
            "outputs": [
                {
                    "internalType": "contract IERC20",
                    "name": "",
                    "type": "address"
                }
            ],
            "stateMutability": "view",
            "type": "function"
        },
        {
            "inputs": [],
            "name": "hamsterPerSecond",
            "outputs": [
                {
                    "internalType": "uint256",
                    "name": "",
                    "type": "uint256"
                }
            ],
            "stateMutability": "view",
            "type": "function"
        },
        {
            "inputs": [],
            "name": "massUpdatePools",
            "outputs": [],
            "stateMutability": "nonpayable",
            "type": "function"
        },
        {
            "inputs": [],
            "name": "operator",
            "outputs": [
                {
                    "internalType": "address",
                    "name": "",
                    "type": "address"
                }
            ],
            "stateMutability": "view",
            "type": "function"
        },
        {
            "inputs": [
                {
                    "internalType": "uint256",
                    "name": "_pid",
                    "type": "uint256"
                },
                {
                    "internalType": "address",
                    "name": "_user",
                    "type": "address"
                }
            ],
            "name": "pendingHAMSTER",
            "outputs": [
                {
                    "internalType": "uint256",
                    "name": "",
                    "type": "uint256"
                }
            ],
            "stateMutability": "view",
            "type": "function"
        },
        {
            "inputs": [],
            "name": "poolEndTime",
            "outputs": [
                {
                    "internalType": "uint256",
                    "name": "",
                    "type": "uint256"
                }
            ],
            "stateMutability": "view",
            "type": "function"
        },
        {
            "inputs": [
                {
                    "internalType": "uint256",
                    "name": "",
                    "type": "uint256"
                }
            ],
            "name": "poolInfo",
            "outputs": [
                {
                    "internalType": "contract IERC20",
                    "name": "token",
                    "type": "address"
                },
                {
                    "internalType": "uint256",
                    "name": "allocPoint",
                    "type": "uint256"
                },
                {
                    "internalType": "uint256",
                    "name": "lastRewardTime",
                    "type": "uint256"
                },
                {
                    "internalType": "uint256",
                    "name": "accHamsterPerShare",
                    "type": "uint256"
                },
                {
                    "internalType": "bool",
                    "name": "isStarted",
                    "type": "bool"
                },
                {
                    "internalType": "uint256",
                    "name": "maxDeposit",
                    "type": "uint256"
                }
            ],
            "stateMutability": "view",
            "type": "function"
        },
        {
            "inputs": [],
            "name": "poolStartTime",
            "outputs": [
                {
                    "internalType": "uint256",
                    "name": "",
                    "type": "uint256"
                }
            ],
            "stateMutability": "view",
            "type": "function"
        },
        {
            "inputs": [],
            "name": "runningTime",
            "outputs": [
                {
                    "internalType": "uint256",
                    "name": "",
                    "type": "uint256"
                }
            ],
            "stateMutability": "view",
            "type": "function"
        },
        {
            "inputs": [
                {
                    "internalType": "uint256",
                    "name": "_pid",
                    "type": "uint256"
                },
                {
                    "internalType": "uint256",
                    "name": "_allocPoint",
                    "type": "uint256"
                }
            ],
            "name": "set",
            "outputs": [],
            "stateMutability": "nonpayable",
            "type": "function"
        },
        {
            "inputs": [
                {
                    "internalType": "address",
                    "name": "_operator",
                    "type": "address"
                }
            ],
            "name": "setOperator",
            "outputs": [],
            "stateMutability": "nonpayable",
            "type": "function"
        },
        {
            "inputs": [],
            "name": "totalAllocPoint",
            "outputs": [
                {
                    "internalType": "uint256",
                    "name": "",
                    "type": "uint256"
                }
            ],
            "stateMutability": "view",
            "type": "function"
        },
        {
            "inputs": [],
            "name": "totalRewards",
            "outputs": [
                {
                    "internalType": "uint256",
                    "name": "",
                    "type": "uint256"
                }
            ],
            "stateMutability": "view",
            "type": "function"
        },
        {
            "inputs": [
                {
                    "internalType": "uint256",
                    "name": "_pid",
                    "type": "uint256"
                }
            ],
            "name": "updatePool",
            "outputs": [],
            "stateMutability": "nonpayable",
            "type": "function"
        },
        {
            "inputs": [
                {
                    "internalType": "uint256",
                    "name": "",
                    "type": "uint256"
                },
                {
                    "internalType": "address",
                    "name": "",
                    "type": "address"
                }
            ],
            "name": "userInfo",
            "outputs": [
                {
                    "internalType": "uint256",
                    "name": "amount",
                    "type": "uint256"
                },
                {
                    "internalType": "uint256",
                    "name": "rewardDebt",
                    "type": "uint256"
                }
            ],
            "stateMutability": "view",
            "type": "function"
        },
        {
            "inputs": [
                {
                    "internalType": "uint256",
                    "name": "_pid",
                    "type": "uint256"
                },
                {
                    "internalType": "uint256",
                    "name": "_amount",
                    "type": "uint256"
                }
            ],
            "name": "withdraw",
            "outputs": [],
            "stateMutability": "nonpayable",
            "type": "function"
        }
    ],
    "bytecode": "608060405260006007553480156200001657600080fd5b5060405162001f8b38038062001f8b83398101604081905262000039916200029f565b824210620000645760405162461bcd60e51b81526004016200005b9062000481565b60405180910390fd5b6001600160a01b0386166200008d5760405162461bcd60e51b81526004016200005b906200049f565b60008211620000b05760405162461bcd60e51b81526004016200005b9062000439565b60008111620000d35760405162461bcd60e51b81526004016200005b90620003f2565b600480546001600160a01b0319166001600160a01b038816179055600c829055600b819055620001108282620001a2602090811b62000f9c17901c565b600a5560005b855181101562000159576200014f8682815181106200013157fe5b60200260200101516000620001da60201b62000fce1790919060201c565b5060010162000116565b5060028490556008839055600b5462000180908490620001f8602090811b62000fea17901c565b6009555050600380546001600160a01b03191633179055506200054a92505050565b6000808211620001c65760405162461bcd60e51b81526004016200005b90620003bb565b818381620001d057fe5b0490505b92915050565b6000620001f1836001600160a01b03841662000220565b9392505050565b600082820183811015620001f15760405162461bcd60e51b81526004016200005b9062000384565b60006200022e83836200026f565b6200026657508154600181810184556000848152602080822090930184905584548482528286019093526040902091909155620001d4565b506000620001d4565b60009081526001919091016020526040902054151590565b80516001600160a01b0381168114620001d457600080fd5b60008060008060008060c08789031215620002b8578182fd5b8651620002c58162000531565b602088810151919750906001600160401b03811115620002e3578384fd5b8801601f81018a13620002f4578384fd5b80516200030b620003058262000511565b620004ea565b81815283810190838501858402850186018e101562000328578788fd5b8794505b838510156200035657620003418e8262000287565b8352600194909401939185019185016200032c565b5060408c015160608d015160808e015160a0909e01519c9f929e50909c909b909a5098509650505050505050565b6020808252601b908201527f536166654d6174683a206164646974696f6e206f766572666c6f770000000000604082015260600190565b6020808252601a908201527f536166654d6174683a206469766973696f6e206279207a65726f000000000000604082015260600190565b60208082526027908201527f48616d7374657247656e65736973506f6f6c3a2072756e6e696e6754696d65206040820152666973207a65726f60c81b606082015260800190565b60208082526028908201527f48616d7374657247656e65736973506f6f6c3a20746f74616c52657761726473604082015267206973207a65726f60c01b606082015260800190565b6020808252600490820152636c61746560e01b604082015260600190565b6020808252602b908201527f48616d7374657247656e65736973506f6f6c3a2068616d73746572206973207a60408201526a65726f206164647265737360a81b606082015260800190565b6040518181016001600160401b03811182821017156200050957600080fd5b604052919050565b60006001600160401b0382111562000527578081fd5b5060209081020190565b6001600160a01b03811681146200054757600080fd5b50565b611a31806200055a6000396000f3fe608060405234801561001057600080fd5b50600436106101585760003560e01c80635b142956116100c357806392fae48d1161007c57806392fae48d1461029257806393f1a40b1461029a578063943f013d146102bb578063b3ab15fb146102c3578063e1c3a7c2146102d6578063e2bbb158146102de57610158565b80635b142956146102415780635f96dc111461025457806362e006c71461025c578063630b5ba11461026f5780636e271dd514610277578063888be6341461027f57610158565b8063441a3e7011610115578063441a3e70146101e557806351eb05a6146101f85780635312ea8e1461020b57806354575af41461021e578063570ca735146102315780635715f8f91461023957610158565b80630e15561a1461015d5780631526fe271461017b57806317caf6f1146101a05780631ab06ee5146101a8578063231f0c6a146101bd57806334cadd12146101d0575b600080fd5b6101656102f1565b6040516101729190611995565b60405180910390f35b61018e6101893660046114ff565b6102f7565b6040516101729695949392919061163d565b61016561034a565b6101bb6101b63660046115af565b610350565b005b6101656101cb3660046115af565b6103e8565b6101d86104ad565b60405161017291906115ec565b6101bb6101f33660046115af565b6104bc565b6101bb6102063660046114ff565b610658565b6101bb6102193660046114ff565b6107c0565b6101bb61022c3660046114be565b610864565b6101d861094d565b61016561095c565b6101d861024f3660046114ff565b610962565b61016561096e565b6101bb61026a36600461155e565b610974565b6101bb610b82565b610165610ba5565b61016561028d36600461152f565b610bab565b610165610d14565b6102ad6102a836600461152f565b610d25565b60405161017292919061199e565b610165610d49565b6101bb6102d1366004611486565b610d4f565b610165610d9b565b6101bb6102ec3660046115af565b610da1565b600c5481565b6005818154811061030457fe5b60009182526020909120600690910201805460018201546002830154600384015460048501546005909501546001600160a01b0390941695509193909260ff9091169086565b60075481565b6003546001600160a01b031633146103835760405162461bcd60e51b815260040161037a906116e7565b60405180910390fd5b61038b610b82565b60006005838154811061039a57fe5b60009182526020909120600690910201600481015490915060ff16156103e1576103dd826103d7836001015460075461100f90919063ffffffff16565b90610fea565b6007555b6001015550565b60008183106103f9575060006104a7565b6009548210610461576009548310610413575060006104a7565b60085483116104465761043f600a5461043960085460095461100f90919063ffffffff16565b90611037565b90506104a7565b61043f600a546104398560095461100f90919063ffffffff16565b6008548211610472575060006104a7565b60085483116104965761043f600a546104396008548561100f90919063ffffffff16565b600a5461043f90610439848661100f565b92915050565b6004546001600160a01b031681565b60003390506000600584815481106104d057fe5b60009182526020808320878452600680835260408086206001600160a01b03891687529093529190932080549290910290920192508411156105245760405162461bcd60e51b815260040161037a906118fe565b61052d85610658565b600061056a8260010154610564670de0b6b3a764000061055e8760030154876000015461103790919063ffffffff16565b90610f9c565b9061100f565b905080156105be5761057c8482611071565b836001600160a01b03167fe2403640ba68fed3a2f88b7557551d1993f84b99bb10ff833f0cf8db0c5e0486826040516105b59190611995565b60405180910390a25b84156105e85781546105d0908661100f565b825582546105e8906001600160a01b03168587611132565b6003830154825461060691670de0b6b3a76400009161055e91611037565b826001018190555085846001600160a01b03167ff279e6a1f5e320cca91135676d9cb6e44ca8a08c0b88342bcdb1144f6511b568876040516106489190611995565b60405180910390a3505050505050565b60006005828154811061066757fe5b906000526020600020906006020190508060020154421161068857506107bd565b80546040516370a0823160e01b81526000916001600160a01b0316906370a08231906106b89030906004016115ec565b60206040518083038186803b1580156106d057600080fd5b505afa1580156106e4573d6000803e3d6000fd5b505050506040513d601f19601f820116820180604052508101906107089190611517565b90508061071c5750426002909101556107bd565b600482015460ff1661074d5760048201805460ff1916600190811790915582015460075461074991610fea565b6007555b600754156107b45760006107658360020154426103e8565b9050600061078660075461055e86600101548561103790919063ffffffff16565b90506107ac6107a18461055e84670de0b6b3a7640000611037565b600386015490610fea565b600385015550505b50426002909101555b50565b6000600582815481106107cf57fe5b6000918252602080832085845260068083526040808620338088529452852080548682556001820196909655930201805490945091929161081c916001600160a01b039091169083611132565b83336001600160a01b03167fbb757047c2b5f3974fe26b7c10f732e7bce710b0952a71082702781e62ae0595836040516108569190611995565b60405180910390a350505050565b6003546001600160a01b0316331461088e5760405162461bcd60e51b815260040161037a906116e7565b60095462278d0001421015610934576004546001600160a01b03848116911614156108cb5760405162461bcd60e51b815260040161037a90611974565b60055460005b81811015610931576000600582815481106108e857fe5b6000918252602090912060069091020180549091506001600160a01b03878116911614156109285760405162461bcd60e51b815260040161037a90611820565b506001016108d1565b50505b6109486001600160a01b0384168284611132565b505050565b6003546001600160a01b031681565b60025481565b60006104a78183611188565b60085481565b6003546001600160a01b0316331461099e5760405162461bcd60e51b815260040161037a906116e7565b6109a784611194565b82156109b5576109b5610b82565b6008544210156109e357816109ce5760085491506109de565b6008548210156109de5760085491505b6109f8565b8115806109ef57504282105b156109f8574291505b600060085483111580610a0b5750428311155b6040805160c0810182526001600160a01b038881168252602082018a8152928201878152600060608401818152861580156080870190815260a087018b815260058054600181018255955296517f036b6384b5eca791c62761152d0c79bb0604c104a5fb6f4eb0703f3154bb3db0600690950294850180546001600160a01b031916919097161790955595517f036b6384b5eca791c62761152d0c79bb0604c104a5fb6f4eb0703f3154bb3db183015591517f036b6384b5eca791c62761152d0c79bb0604c104a5fb6f4eb0703f3154bb3db282015590517f036b6384b5eca791c62761152d0c79bb0604c104a5fb6f4eb0703f3154bb3db382015590517f036b6384b5eca791c62761152d0c79bb0604c104a5fb6f4eb0703f3154bb3db48201805460ff191691151591909117905590517f036b6384b5eca791c62761152d0c79bb0604c104a5fb6f4eb0703f3154bb3db590910155909150610b7a57600754610b769087610fea565b6007555b505050505050565b60055460005b81811015610ba157610b9981610658565b600101610b88565b5050565b60095481565b60008060058481548110610bbb57fe5b60009182526020808320878452600680835260408086206001600160a01b038a811688529452808620949091029091016003810154815492516370a0823160e01b815291965093949291909116906370a0823190610c1d9030906004016115ec565b60206040518083038186803b158015610c3557600080fd5b505afa158015610c49573d6000803e3d6000fd5b505050506040513d601f19601f82011682018060405250810190610c6d9190611517565b9050836002015442118015610c8157508015155b15610cde576000610c968560020154426103e8565b90506000610cb760075461055e88600101548561103790919063ffffffff16565b9050610cd9610cd28461055e84670de0b6b3a7640000611037565b8590610fea565b935050505b610d098360010154610564670de0b6b3a764000061055e86886000015461103790919063ffffffff16565b979650505050505050565b6000610d2060006111f9565b905090565b60066020908152600092835260408084209091529082529020805460019091015482565b600b5481565b6003546001600160a01b03163314610d795760405162461bcd60e51b815260040161037a906116e7565b600380546001600160a01b0319166001600160a01b0392909216919091179055565b600a5481565b6000339050600060058481548110610db557fe5b60009182526020808320878452600680835260408086206001600160a01b03891687529093529190932091029091019150610def85610658565b805415610e7d576000610e278260010154610564670de0b6b3a764000061055e8760030154876000015461103790919063ffffffff16565b90508015610e7b57610e398482611071565b836001600160a01b03167fe2403640ba68fed3a2f88b7557551d1993f84b99bb10ff833f0cf8db0c5e048682604051610e729190611995565b60405180910390a25b505b80546005830154600091610e91919061100f565b90506000818611610ea25785610ea4565b815b90508015610f2b578354610ec3906001600160a01b0316863084611204565b8354610eda906000906001600160a01b031661122b565b15610f1c5760006127109050610f14610f0c8261055e610f056002548661100f90919063ffffffff16565b8690611037565b855490610fea565b845550610f2b565b8254610f289082610fea565b83555b60038401548354610f4991670de0b6b3a76400009161055e91611037565b836001018190555086856001600160a01b03167f90890809c654f11d6e72a28fa60149770a0d11ec6c92319d6ceb2bb0a4ea1a1583604051610f8b9190611995565b60405180910390a350505050505050565b6000808211610fbd5760405162461bcd60e51b815260040161037a906117e9565b818381610fc657fe5b049392505050565b6000610fe3836001600160a01b038416611240565b9392505050565b600082820183811015610fe35760405162461bcd60e51b815260040161037a90611735565b6000828211156110315760405162461bcd60e51b815260040161037a9061176c565b50900390565b600082611046575060006104a7565b8282028284828161105357fe5b0414610fe35760405162461bcd60e51b815260040161037a90611844565b600480546040516370a0823160e01b81526000926001600160a01b03909216916370a08231916110a3913091016115ec565b60206040518083038186803b1580156110bb57600080fd5b505afa1580156110cf573d6000803e3d6000fd5b505050506040513d601f19601f820116820180604052508101906110f39190611517565b90508015610948578082111561111f5760045461111a906001600160a01b03168483611132565b610948565b600454610948906001600160a01b031684845b6109488363a9059cbb60e01b8484604051602401611151929190611624565b60408051601f198184030181529190526020810180516001600160e01b03166001600160e01b03199093169290921790915261128a565b6000610fe38383611319565b60055460005b8181101561094857826001600160a01b0316600582815481106111b957fe5b60009182526020909120600690910201546001600160a01b031614156111f15760405162461bcd60e51b815260040161037a90611885565b60010161119a565b60006104a78261135e565b611225846323b872dd60e01b85858560405160240161115193929190611600565b50505050565b6000610fe3836001600160a01b038416611362565b600061124c8383611362565b611282575081546001818101845560008481526020808220909301849055845484825282860190935260409020919091556104a7565b5060006104a7565b60606112df826040518060400160405280602081526020017f5361666545524332303a206c6f772d6c6576656c2063616c6c206661696c6564815250856001600160a01b031661137a9092919063ffffffff16565b80519091501561094857808060200190518101906112fd91906114a2565b6109485760405162461bcd60e51b815260040161037a9061192a565b8154600090821061133c5760405162461bcd60e51b815260040161037a906116a5565b82600001828154811061134b57fe5b9060005260206000200154905092915050565b5490565b60009081526001919091016020526040902054151590565b60606113898484600085611391565b949350505050565b6060824710156113b35760405162461bcd60e51b815260040161037a906117a3565b6113bc85611447565b6113d85760405162461bcd60e51b815260040161037a906118c7565b60006060866001600160a01b031685876040516113f591906115d0565b60006040518083038185875af1925050503d8060008114611432576040519150601f19603f3d011682016040523d82523d6000602084013e611437565b606091505b5091509150610d0982828661144d565b3b151590565b6060831561145c575081610fe3565b82511561146c5782518084602001fd5b8160405162461bcd60e51b815260040161037a9190611672565b600060208284031215611497578081fd5b8135610fe3816119d8565b6000602082840312156114b3578081fd5b8151610fe3816119ed565b6000806000606084860312156114d2578182fd5b83356114dd816119d8565b92506020840135915060408401356114f4816119d8565b809150509250925092565b600060208284031215611510578081fd5b5035919050565b600060208284031215611528578081fd5b5051919050565b60008060408385031215611541578182fd5b823591506020830135611553816119d8565b809150509250929050565b600080600080600060a08688031215611575578081fd5b853594506020860135611587816119d8565b93506040860135611597816119ed565b94979396509394606081013594506080013592915050565b600080604083850312156115c1578182fd5b50508035926020909101359150565b600082516115e28184602087016119ac565b9190910192915050565b6001600160a01b0391909116815260200190565b6001600160a01b039384168152919092166020820152604081019190915260600190565b6001600160a01b03929092168252602082015260400190565b6001600160a01b039690961686526020860194909452604085019290925260608401521515608083015260a082015260c00190565b60006020825282518060208401526116918160408501602087016119ac565b601f01601f19169190910160400192915050565b60208082526022908201527f456e756d657261626c655365743a20696e646578206f7574206f6620626f756e604082015261647360f01b606082015260800190565b6020808252602e908201527f48616d7374657247656e65736973506f6f6c3a2063616c6c6572206973206e6f60408201526d3a103a34329037b832b930ba37b960911b606082015260800190565b6020808252601b908201527f536166654d6174683a206164646974696f6e206f766572666c6f770000000000604082015260600190565b6020808252601e908201527f536166654d6174683a207375627472616374696f6e206f766572666c6f770000604082015260600190565b60208082526026908201527f416464726573733a20696e73756666696369656e742062616c616e636520666f6040820152651c8818d85b1b60d21b606082015260800190565b6020808252601a908201527f536166654d6174683a206469766973696f6e206279207a65726f000000000000604082015260600190565b6020808252600a90820152693837b7b6173a37b5b2b760b11b604082015260600190565b60208082526021908201527f536166654d6174683a206d756c7469706c69636174696f6e206f766572666c6f6040820152607760f81b606082015260800190565b60208082526022908201527f48616d7374657247656e65736973506f6f6c3a206578697374696e6720706f6f6040820152616c3f60f01b606082015260800190565b6020808252601d908201527f416464726573733a2063616c6c20746f206e6f6e2d636f6e7472616374000000604082015260600190565b6020808252601290820152711dda5d1a191c985dce881b9bdd0819dbdbd960721b604082015260600190565b6020808252602a908201527f5361666545524332303a204552433230206f7065726174696f6e20646964206e6040820152691bdd081cdd58d8d9595960b21b606082015260800190565b6020808252600790820152663430b6b9ba32b960c91b604082015260600190565b90815260200190565b918252602082015260400190565b60005b838110156119c75781810151838201526020016119af565b838111156112255750506000910152565b6001600160a01b03811681146107bd57600080fd5b80151581146107bd57600080fdfea2646970667358221220ffd2be4eab996e3f7c91fe0cf53d9d3482b6ecd1813be52bd8d987c475219f6164736f6c634300060c0033",
    "sourcePath": "/home/surfacing8671/Documents/HamsterTomb/contracts/distribution/HamsterGenesisRewardPool.sol",
    "compiler": {
        "name": "solc",
        "version": "0.6.12+commit.27d51765"
    },
    "functionHashes": {
        "add(uint256,address,bool,uint256,uint256)": "62e006c7",
        "comissionPercent()": "5715f8f9",
        "comissionToken(uint256)": "5b142956",
        "comissionTokensCount()": "92fae48d",
        "deposit(uint256,uint256)": "e2bbb158",
        "emergencyWithdraw(uint256)": "5312ea8e",
        "getGeneratedReward(uint256,uint256)": "231f0c6a",
        "governanceRecoverUnsupported(address,uint256,address)": "54575af4",
        "hamster()": "34cadd12",
        "hamsterPerSecond()": "e1c3a7c2",
        "massUpdatePools()": "630b5ba1",
        "operator()": "570ca735",
        "pendingHAMSTER(uint256,address)": "888be634",
        "poolEndTime()": "6e271dd5",
        "poolInfo(uint256)": "1526fe27",
        "poolStartTime()": "5f96dc11",
        "runningTime()": "943f013d",
        "set(uint256,uint256)": "1ab06ee5",
        "setOperator(address)": "b3ab15fb",
        "totalAllocPoint()": "17caf6f1",
        "totalRewards()": "0e15561a",
        "updatePool(uint256)": "51eb05a6",
        "userInfo(uint256,address)": "93f1a40b",
        "withdraw(uint256,uint256)": "441a3e70"
    },
    "gasEstimates": {
        "creation": {
            "codeDepositCost": "1341000",
            "executionCost": "infinite",
            "totalCost": "infinite"
        },
        "external": {
            "add(uint256,address,bool,uint256,uint256)": "infinite",
            "comissionPercent()": "1161",
            "comissionToken(uint256)": "2967",
            "comissionTokensCount()": "1125",
            "deposit(uint256,uint256)": "infinite",
            "emergencyWithdraw(uint256)": "infinite",
            "getGeneratedReward(uint256,uint256)": "infinite",
            "governanceRecoverUnsupported(address,uint256,address)": "infinite",
            "hamster()": "1204",
            "hamsterPerSecond()": "1138",
            "massUpdatePools()": "infinite",
            "operator()": "1181",
            "pendingHAMSTER(uint256,address)": "infinite",
            "poolEndTime()": "1139",
            "poolInfo(uint256)": "6296",
            "poolStartTime()": "1073",
            "runningTime()": "1094",
            "set(uint256,uint256)": "infinite",
            "setOperator(address)": "22093",
            "totalAllocPoint()": "1096",
            "totalRewards()": "1052",
            "updatePool(uint256)": "infinite",
            "userInfo(uint256,address)": "2226",
            "withdraw(uint256,uint256)": "infinite"
        },
        "internal": {
            "checkPoolDuplicate(contract IERC20)": "infinite",
            "safeHamsterTransfer(address,uint256)": "infinite"
        }
    }
}